{
  "contractName": "FDP",
  "abi": [
    {
      "constant": true,
      "inputs": [],
      "name": "email",
      "outputs": [
        {
          "internalType": "string",
          "name": "",
          "type": "string"
        }
      ],
      "payable": false,
      "stateMutability": "view",
      "type": "function"
    },
    {
      "constant": true,
      "inputs": [],
      "name": "name",
      "outputs": [
        {
          "internalType": "string",
          "name": "",
          "type": "string"
        }
      ],
      "payable": false,
      "stateMutability": "view",
      "type": "function"
    },
    {
      "constant": true,
      "inputs": [],
      "name": "phone",
      "outputs": [
        {
          "internalType": "string",
          "name": "",
          "type": "string"
        }
      ],
      "payable": false,
      "stateMutability": "view",
      "type": "function"
    },
    {
      "constant": false,
      "inputs": [
        {
          "internalType": "string",
          "name": "_n",
          "type": "string"
        },
        {
          "internalType": "string",
          "name": "_e",
          "type": "string"
        },
        {
          "internalType": "string",
          "name": "_p",
          "type": "string"
        }
      ],
      "name": "updateValues",
      "outputs": [],
      "payable": false,
      "stateMutability": "nonpayable",
      "type": "function"
    }
  ],
  "bytecode": "0x60806040526040518060400160405280600681526020017f5072696e636500000000000000000000000000000000000000000000000000008152506000908051906020019061004f9291906100fa565b506040518060400160405280601b81526020017f7072696e6365406564756e6574666f756e646174696f6e2e6f726700000000008152506001908051906020019061009b9291906100fa565b506040518060400160405280600a81526020017f3938343639353230343800000000000000000000000000000000000000000000815250600290805190602001906100e79291906100fa565b503480156100f457600080fd5b5061019f565b828054600181600116156101000203166002900490600052602060002090601f016020900481019282601f1061013b57805160ff1916838001178555610169565b82800160010185558215610169579182015b8281111561016857825182559160200191906001019061014d565b5b509050610176919061017a565b5090565b61019c91905b80821115610198576000816000905550600101610180565b5090565b90565b6106c1806101ae6000396000f3fe608060405234801561001057600080fd5b506004361061004c5760003560e01c806304a919e71461005157806306fdde031461023a578063820e93f5146102bd5780639284f49714610340575b600080fd5b6102386004803603606081101561006757600080fd5b810190808035906020019064010000000081111561008457600080fd5b82018360208201111561009657600080fd5b803590602001918460018302840111640100000000831117156100b857600080fd5b91908080601f016020809104026020016040519081016040528093929190818152602001838380828437600081840152601f19601f8201169050808301925050505050505091929192908035906020019064010000000081111561011b57600080fd5b82018360208201111561012d57600080fd5b8035906020019184600183028401116401000000008311171561014f57600080fd5b91908080601f016020809104026020016040519081016040528093929190818152602001838380828437600081840152601f19601f820116905080830192505050505050509192919290803590602001906401000000008111156101b257600080fd5b8201836020820111156101c457600080fd5b803590602001918460018302840111640100000000831117156101e657600080fd5b91908080601f016020809104026020016040519081016040528093929190818152602001838380828437600081840152601f19601f8201169050808301925050505050505091929192905050506103c3565b005b61024261040d565b6040518080602001828103825283818151815260200191508051906020019080838360005b83811015610282578082015181840152602081019050610267565b50505050905090810190601f1680156102af5780820380516001836020036101000a031916815260200191505b509250505060405180910390f35b6102c56104ab565b6040518080602001828103825283818151815260200191508051906020019080838360005b838110156103055780820151818401526020810190506102ea565b50505050905090810190601f1680156103325780820380516001836020036101000a031916815260200191505b509250505060405180910390f35b610348610549565b6040518080602001828103825283818151815260200191508051906020019080838360005b8381101561038857808201518184015260208101905061036d565b50505050905090810190601f1680156103b55780820380516001836020036101000a031916815260200191505b509250505060405180910390f35b82600090805190602001906103d99291906105e7565b5081600190805190602001906103f09291906105e7565b5080600290805190602001906104079291906105e7565b50505050565b60008054600181600116156101000203166002900480601f0160208091040260200160405190810160405280929190818152602001828054600181600116156101000203166002900480156104a35780601f10610478576101008083540402835291602001916104a3565b820191906000526020600020905b81548152906001019060200180831161048657829003601f168201915b505050505081565b60018054600181600116156101000203166002900480601f0160208091040260200160405190810160405280929190818152602001828054600181600116156101000203166002900480156105415780601f1061051657610100808354040283529160200191610541565b820191906000526020600020905b81548152906001019060200180831161052457829003601f168201915b505050505081565b60028054600181600116156101000203166002900480601f0160208091040260200160405190810160405280929190818152602001828054600181600116156101000203166002900480156105df5780601f106105b4576101008083540402835291602001916105df565b820191906000526020600020905b8154815290600101906020018083116105c257829003601f168201915b505050505081565b828054600181600116156101000203166002900490600052602060002090601f016020900481019282601f1061062857805160ff1916838001178555610656565b82800160010185558215610656579182015b8281111561065557825182559160200191906001019061063a565b5b5090506106639190610667565b5090565b61068991905b8082111561068557600081600090555060010161066d565b5090565b9056fea265627a7a72315820fc2bf1f7000b0e5cb45f830023c5e78995fa99cb17bf1a62baff8d3b7d723c1e64736f6c63430005100032",
  "source": "// SPDX-License-Identifier: MIT\npragma solidity >=0.4.22 <0.8.0;\n\ncontract FDP {\n    string public name=\"Prince\";\n    string public email=\"prince@edunetfoundation.org\";\n    string public phone=\"9846952048\";\n    function updateValues(string memory _n,string memory _e,string memory _p) public {\n        name=_n;\n        email=_e;\n        phone=_p;\n    }\n}",
  "sourcePath": "/Users/princekurian/Desktop/FDP-Blockchain/contracts/FDP.sol",
  "compiler": {
    "name": "solc",
    "version": "0.5.16+commit.9c3226ce.Emscripten.clang"
  },
  "schemaVersion": "3.4.4",
  "updatedAt": "2023-06-03T07:48:51.091Z",
  "networkType": "ethereum",
  "devdoc": {
    "methods": {}
  },
  "userdoc": {
    "methods": {}
  }
}